:100000000C942A000C9447000C9447000C94470071
:100010000C9447000C9447000C9447000C948606FF
:100020000C9447000C94B9060C9447000C944700BC
:100030000C9447000C9447000C9447000C94470024
:100040000C9447000C9447000C9447000C94470014
:100050000C94470011241FBECFE5D8E0DEBFCDBF12
:1000600010E0A0E6B0E0E8E7F3E202C005900D92F0
:10007000A637B107D9F710E0A6E7B0E001C01D929E
:10008000AB37B107E1F70E94DA0C0C94BA110C946B
:100090000000EF92FF920F931F937B018C0120E0F1
:1000A00030E040E05FE40E94490388238CF0C801FF
:1000B000B70120E030E040E05FE40E94C1010E940F
:1000C000A9039B01AC01205030404040504806C07D
:1000D000C801B7010E94A9039B01AC01B901CA0183
:1000E0001F910F91FF90EF900895A0E0B0E0EBE733
:1000F000F0E00C948311DC012B01FA019C91923009
:1001000008F439C1EB018881823008F433C194309E
:1001100069F4843009F02FC111969C91119789815F
:10012000981709F428C1A0E6B0E025C1843009F48D
:1001300021C18230A9F4923009F01DC19A01AD01AC
:1001400088E0EA010990AE01E90109929E0181501F
:10015000C1F7E201898111969C918923818308C1AD
:10016000923009F407C112962D903C901397EB0141
:100170008A819B811496AD90BD90CD90DC901797AD
:10018000EC80FD800E811F819101281B390BB90184
:1001900037FF04C066277727621B730B6032710537
:1001A0000CF061C0121613066CF537014801062EDB
:1001B00004C096948794779467940A94D2F721E0C8
:1001C00030E040E050E004C0220F331F441F551FB1
:1001D0006A95D2F721503040404050402E213F21B7
:1001E00040235123211531054105510521F021E01E
:1001F00030E040E050E079018A01E628F72808293C
:1002000019293CC0232BD1F1260E371E350146019A
:10021000062E04C096948794779467940A94D2F734
:1002200021E030E040E050E004C0220F331F441FC3
:10023000551F6A95D2F721503040404050402A2146
:100240003B214C215D21211531054105510521F04E
:1002500021E030E040E050E059016A01A628B728CB
:10026000C828D9280BC0821593052CF01C01AA249C
:10027000BB24650103C0EE24FF24870111969C91E5
:10028000D20111968C91981709F445C0992339F041
:10029000A80197012A193B094C095D0906C0A6016E
:1002A00095012E193F09400B510B57FD08C01182D3
:1002B0003382228224833583468357831DC081E0A5
:1002C00081833382228288279927DC01821B930B4A
:1002D000A40BB50B84839583A683B7830DC0220F2F
:1002E000331F441F551F24833583468357838281E0
:1002F000938101979383828324813581468157813D
:10030000DA01C9010197A109B1098F5F9F4FAF4F72
:10031000BF4328F30BC0918333822282EA0CFB1C7B
:100320000C1D1D1DE482F5820683178383E0808304
:10033000248135814681578157FF1AC0C901AA27F8
:1003400097FDA095BA2F81709070A070B0705695EF
:10035000479537952795822B932BA42BB52B848318
:100360009583A683B7838281938101969383828349
:10037000DF0101C0D201CD01CDB7DEB7E2E10C94BF
:100380009F11A0E2B0E0E7ECF1E00C948F116983DB
:100390007A838B839C832D833E834F835887E9E048
:1003A000EE2EF12CEC0EFD1ECE010196B7010E943F
:1003B000D2048E010F5E1F4FCE010596B8010E9438
:1003C000D2048A8991E089278A8BC701B801AE01DE
:1003D000475E5F4F0E9475000E94FD03A096E6E015
:1003E0000C94AB11A0E2B0E0E8EFF1E00C948F11B7
:1003F00069837A838B839C832D833E834F835887C5
:10040000F9E0EF2EF12CEC0EFD1ECE010196B701A6
:100410000E94D2048E010F5E1F4FCE010596B801D7
:100420000E94D204C701B801AE01475E5F4F0E942F
:1004300075000E94FD03A096E6E00C94AB11A0E2CB
:10044000B0E0E5E2F2E00C94831169837A838B8358
:100450009C832D833E834F835887CE010196BE0136
:10046000675F7F4F0E94D204CE010596BE016F5E8A
:100470007F4F0E94D2049985923088F0898982301A
:10048000C8F0943019F4823051F404C0843029F457
:10049000923081F480E690E0C6C0923049F420E0CA
:1004A0009A858A89981321E02A87CE010996BBC0D4
:1004B000823049F420E09A858A89981321E02A8BBA
:1004C000CE014196B0C02D843E844F8458886D88FB
:1004D0007E888F88988CEE24FF248701AA24BB2471
:1004E000650140E050E060E070E0E0E0F0E0C10174
:1004F00081709070892BE9F0E60CF71C081D191D1E
:100500009A01AB012A0D3B1D4C1D5D1D80E090E062
:10051000A0E0B0E0E614F7040805190520F481E036
:1005200090E0A0E0B0E0BA01A901480F591F6A1F8E
:100530007B1FAA0CBB1CCC1CDD1C97FE08C081E0F5
:1005400090E0A0E0B0E0A82AB92ACA2ADB2A3196B6
:10055000E032F10549F0660C771C881C991C569412
:10056000479437942794C3CFFA85EA892B893C892D
:100570008B859C85280F391F2E5F3F4F17C0CA01FE
:1005800081709070892B61F016950795F794E79428
:1005900080E090E0A0E0B0E8E82AF92A0A2B1B2BC3
:1005A00076956795579547952F5F3F4F77FDE7CF36
:1005B0000CC0440F551F661F771F17FD4160EE0CDE
:1005C000FF1C001F111F21503040403090E05907A0
:1005D00090E0690790E4790760F32B8F3C8FDB0193
:1005E000CA018F779070A070B07080349105A1051A
:1005F000B10561F447FD0AC0E114F10401051105DC
:1006000029F0405C5F4F6F4F7F4F40781A8EFE1786
:1006100011F081E08A8F4D8F5E8F6F8F78A383E01A
:10062000898FCE0149960E94FD03A096E2E10C94C9
:100630009F11A8E1B0E0EFE1F3E00C948F11698322
:100640007A838B839C832D833E834F83588789E0F5
:10065000E82EF12CEC0EFD1ECE010196B7010E9492
:10066000D2048E010F5E1F4FCE010596B8010E9485
:10067000D2048985823040F08989823028F0C70110
:10068000B8010E944A0501C08FEF6896E6E00C941D
:10069000AB11A8E1B0E0EFE4F3E00C948F116983B3
:1006A0007A838B839C832D833E834F83588789E095
:1006B000E82EF12CEC0EFD1ECE010196B7010E9432
:1006C000D2048E010F5E1F4FCE010596B8010E9425
:1006D000D2048985823040F08989823028F0C701B0
:1006E000B8010E944A0501C08FEF6896E6E00C94BD
:1006F000AB11A8E1B0E0EFE7F3E00C948F11698350
:100700007A838B839C832D833E834F83588789E034
:10071000E82EF12CEC0EFD1ECE010196B7010E94D1
:10072000D2048E010F5E1F4FCE010596B8010E94C4
:10073000D2048985823040F08989823028F0C7014F
:10074000B8010E944A0501C081E06896E6E00C9479
:10075000AB11ACE0B0E0EFEAF3E00C9493116983E5
:100760007A838B839C83CE010196BE016B5F7F4FA2
:100770000E94D2048D81823061F1823050F1843048
:1007800021F48E81882351F12EC02F81388537FDC9
:1007900020C06E812F3131051CF06623F9F023C093
:1007A0008EE190E0821B930B29853A854B855C8511
:1007B00004C056954795379527958A95D2F76623B5
:1007C000B1F050954095309521953F4F4F4F5F4F79
:1007D0000EC020E030E040E050E009C02FEF3FEFD6
:1007E0004FEF5FE704C020E030E040E050E8B9019F
:1007F000CA012C96E2E00C94AF11DF92EF92FF92C7
:100800000F931F93FC01E480F58006811781D1804E
:100810008081823048F480E090E0A0E1B0E0E82AF6
:10082000F92A0A2B1B2BA5C0843009F49FC0823003
:1008300021F4EE24FF24870105C0E114F104010531
:10084000110519F4E0E0F0E096C0628173819FEF3A
:10085000623879070CF05BC022E83FEF261B370BAC
:100860002A3131052CF020E030E040E050E02AC091
:10087000B801A701022E04C0769567955795479554
:100880000A94D2F781E090E0A0E0B0E004C0880FC5
:10089000991FAA1FBB1F2A95D2F70197A109B10979
:1008A0008E219F21A023B1230097A105B10521F03E
:1008B00081E090E0A0E0B0E09A01AB01282B392B59
:1008C0004A2B5B2BDA01C9018F779070A070B07052
:1008D00080349105A105B10539F427FF09C0205CDA
:1008E0003F4F4F4F5F4F04C0215C3F4F4F4F5F4F13
:1008F000E0E0F0E02030A0E03A07A0E04A07A0E402
:100900005A0710F0E1E0F0E079018A0127C0603871
:10091000710564F5FB01E158FF4FD801C7018F77DE
:100920009070A070B07080349105A105B10539F4C4
:10093000E7FE0DC080E490E0A0E0B0E004C08FE3EB
:1009400090E0A0E0B0E0E80EF91E0A1F1B1F17FFA1
:1009500005C016950795F794E794319687E01695AC
:100960000795F794E7948A95D1F705C0EE24FF2404
:100970008701EFEFF0E06E2F679566276795902F60
:100980009F77D794DD24D7948E2F8695492F462BB9
:10099000582F5D29B701CA011F910F91FF90EF9069
:1009A000DF900895FC01DB01408151812281622F9B
:1009B0006F7770E0221F2227221F9381892F880FD3
:1009C000822B282F30E0991F9927991F11969C930D
:1009D000119721153105A9F54115510561057105DD
:1009E00011F482E037C082E89FEF13969C938E93B8
:1009F00012979A01AB0167E0220F331F441F551F66
:100A00006A95D1F783E08C930DC0220F331F441FEA
:100A1000551F12968D919C911397019713969C9355
:100A20008E931297203080E0380780E0480780E4FA
:100A3000580758F314962D933D934D935C93179755
:100A400008952F3F310579F4411551056105710570
:100A500019F484E08C93089564FF03C081E08C93C3
:100A600012C01C9210C02F57304013963C932E9307
:100A7000129783E08C9387E0440F551F661F771F02
:100A80008A95D1F7706414964D935D936D937C9322
:100A9000179708951F93DC01FB019C91923008F495
:100AA00047C08081823008F443C0943051F41196DD
:100AB0001C91843099F58181682F70E0611B710968
:100AC0003FC0843021F0923031F48230B9F181811D
:100AD000882389F12DC011961C9111978230F1F075
:100AE00081811817D9F412962D913C911397828128
:100AF00093818217930794F028173907BCF0149656
:100B00008D919D910D90BC91A02D248135814681C0
:100B10005781281739074A075B0718F4112341F05A
:100B20000AC082179307A407B50740F4112319F0F0
:100B300061E070E005C06FEF7FEF02C060E070E041
:100B4000CB011F9108950F931F93DF93CF930F92C3
:100B5000CDB7DEB78983E2E5F0E01082A3E5B0E02F
:100B6000E3E5F0E080818F778C93A3E5B0E0E3E5E7
:100B7000F0E0808180648C93A3E5B0E0E3E5F0E0F1
:100B8000808188608C93A3E5B0E0E3E5F0E08081AC
:100B900080628C93A3E5B0E0E3E5F0E080818F7E96
:100BA0008C930CE510E08981882F90E0A0E0B0E004
:100BB0002FEF30E040E050E0BC01CD010E94421137
:100BC000DC01CB0124E630E040E050E0BC01CD0187
:100BD0000E946111DA01C901F801808381E063E0BC
:100BE00041E00E941308A3E5B0E0E3E5F0E0808176
:100BF00082608C93A3E5B0E0E3E5F0E080818B7F39
:100C00008C93A3E5B0E0E3E5F0E080818E7F8C93E8
:100C10000F90CF91DF911F910F910895DF93CF93A4
:100C200000D0CDB7DEB79A838983ACE4B0E0E98128
:100C3000FA818081918111969C938E93AAE4B0E011
:100C4000E981FA818281938111969C938E93AFE41E
:100C5000B0E0E981FA818581837088608C93AEE48D
:100C6000B0E0E981FA818481282FE981FA818581C8
:100C700086958695882F90E0880F991F880F991F79
:100C8000880F991F822B8C93E981FA8185818823B3
:100C900029F4E9E5F0E084E0808309C0E981FA8184
:100CA0008581843021F4E9E5F0E080E180830F90D4
:100CB0000F90CF91DF910895DF93CF93CDB7DEB73B
:100CC000E9E5F0E01082ECE4F0E011821082EEE45D
:100CD000F0E01082EFE4F0E01082109277001092C2
:100CE0007600CF91DF910895DF93CF9300D0CDB7F9
:100CF000DEB79A83898389819A8190937700809364
:100D000076000F900F90CF91DF9108951F920F9270
:100D10000FB60F9211242F933F934F935F936F93CE
:100D20007F938F939F93AF93BF93EF93FF93DF9343
:100D3000CF93CDB7DEB78091760090917700009782
:100D400029F0E0917600F09177000995CF91DF913D
:100D5000FF91EF91BF91AF919F918F917F916F9193
:100D60005F914F913F912F910F900FBE0F901F9069
:100D700018951F920F920FB60F9211242F933F9345
:100D80004F935F936F937F938F939F93AF93BF9393
:100D9000EF93FF93DF93CF93CDB7DEB780917600CB
:100DA00090917700009729F0E0917600F09177001C
:100DB0000995CF91DF91FF91EF91BF91AF919F91F5
:100DC0008F917F916F915F914F913F912F910F90F4
:100DD0000FBE0F901F901895DF93CF93CDB7DEB75E
:100DE00083E067E041E00E9413080E940607CF916C
:100DF000DF910895DF93CF93CDB7DEB783E067E04F
:100E000041E00E94FE08CF91DF910895DF93CF93D8
:100E1000CDB7DEB783E067E040E00E94FE08CF91E7
:100E2000DF910895DF93CF93CDB7DEB781E060E027
:100E300041E00E94130881E061E041E00E94130854
:100E400081E060E040E00E94FE0881E061E040E077
:100E50000E94FE08CF91DF910895DF93CF9300D0D9
:100E600000D0CDB7DEB789836A838981282F30E02F
:100E70003C832B838B819C8181309105A1F02B8158
:100E80003C8122303105D1F08B819C81009701F5A6
:100E900081E060E040E00E94FE0881E061E040E027
:100EA0000E94FE0815C081E060E041E00E94FE085B
:100EB00081E061E040E00E94FE080AC081E060E05D
:100EC00040E00E94FE0881E061E041E00E94FE08EF
:100ED0008A810E94A3050F900F900F900F90CF91E1
:100EE000DF910895DF93CF9300D000D0CDB7DEB768
:100EF0009A8389836B830E94D30F0E942B108830C2
:100F000011F01C8228C089819A8180709770880FA7
:100F1000892F881F990B9195806A0E94EE0F0E947D
:100F20002B10883111F01C8216C089810E94EE0FAF
:100F30000E942B10883211F01C820DC08B810E9400
:100F4000EE0F0E942B10883211F01C8204C00E9408
:100F5000E30F81E08C838C810F900F900F900F90A6
:100F6000CF91DF910895DF93CF9300D000D00F92FF
:100F7000CDB7DEB79A8389837C836B830E94D30FBE
:100F80000E942B10883011F01D8244C089819A8103
:100F900080709770880F892F881F990B9195806AB0
:100FA0000E94EE0F0E942B10883111F01D8232C07A
:100FB00089810E94EE0F0E942B10883211F01D8251
:100FC00029C00E94D30F0E942B10803111F01D8286
:100FD00021C089819A8180709770880F892F881F1E
:100FE000990B9195816A0E94EE0F0E942B1080341C
:100FF00011F01D820FC00E941810EB81FC818083CC
:101000000E942B10883511F01D8204C00E94E30F4E
:1010100081E08D838D810F900F900F900F900F9036
:10102000CF91DF910895DF93CF9300D000D00F923E
:10103000CDB7DEB789836A834B838A81883008F015
:10104000D5C08981843008F0D1C08981282F30E053
:101050003D832C838C819D818130910509F443C0AF
:101060002C813D81223031052CF48C819D810097AB
:1010700071F0BCC02C813D812230310509F45FC084
:101080008C819D818330910509F485C0AFC08B812F
:101090008130A1F4AAE3B0E0EAE3F0E08081482FD8
:1010A0008A81282F30E081E090E0022E02C0880F74
:1010B000991F0A94E2F7842B8C9398C0AAE3B0E0BE
:1010C000EAE3F0E08081482F8A81282F30E081E038
:1010D00090E0022E02C0880F991F0A94E2F78095D3
:1010E00084238C9383C08B818130A1F4A7E3B0E08B
:1010F000E7E3F0E08081482F8A81282F30E081E00B
:1011000090E0022E02C0880F991F0A94E2F7842B08
:101110008C936CC0A7E3B0E0E7E3F0E08081482F58
:101120008A81282F30E081E090E0022E02C0880FF3
:10113000991F0A94E2F7809584238C9357C08B8182
:101140008130A1F4A4E3B0E0E4E3F0E08081482F33
:101150008A81282F30E081E090E0022E02C0880FC3
:10116000991F0A94E2F7842B8C9340C0A4E3B0E06B
:10117000E4E3F0E08081482F8A81282F30E081E08D
:1011800090E0022E02C0880F991F0A94E2F7809522
:1011900084238C932BC08B818130A1F4A1E3B0E038
:1011A000E1E3F0E08081482F8A81282F30E081E060
:1011B00090E0022E02C0880F991F0A94E2F7842B58
:1011C0008C9314C0A1E3B0E0E1E3F0E08081482F0C
:1011D0008A81282F30E081E090E0022E02C0880F43
:1011E000991F0A94E2F7809584238C930F900F90B7
:1011F0000F900F900F90CF91DF910895DF93CF93D1
:1012000000D000D00F92CDB7DEB789836A834B83BD
:101210008A81883008F0D5C08981843008F0D1C037
:101220008981282F30E03D832C838C819D81813002
:10123000910509F443C02C813D81223031052CF405
:101240008C819D81009771F0BCC02C813D81223042
:10125000310509F45FC08C819D818330910509F4CB
:1012600085C0AFC08B818130A1F4ABE3B0E0EBE38C
:10127000F0E08081482F8A81282F30E081E090E0E3
:10128000022E02C0880F991F0A94E2F7842B8C93D8
:1012900098C0ABE3B0E0EBE3F0E08081482F8A81B7
:1012A000282F30E081E090E0022E02C0880F991FC5
:1012B0000A94E2F7809584238C9383C08B818130DC
:1012C000A1F4A8E3B0E0E8E3F0E08081482F8A8150
:1012D000282F30E081E090E0022E02C0880F991F95
:1012E0000A94E2F7842B8C936CC0A8E3B0E0E8E3A7
:1012F000F0E08081482F8A81282F30E081E090E063
:10130000022E02C0880F991F0A94E2F78095842369
:101310008C9357C08B818130A1F4A5E3B0E0E5E365
:10132000F0E08081482F8A81282F30E081E090E032
:10133000022E02C0880F991F0A94E2F7842B8C9327
:1013400040C0A5E3B0E0E5E3F0E08081482F8A816A
:10135000282F30E081E090E0022E02C0880F991F14
:101360000A94E2F7809584238C932BC08B81813083
:10137000A1F4A2E3B0E0E2E3F0E08081482F8A81AB
:10138000282F30E081E090E0022E02C0880F991FE4
:101390000A94E2F7842B8C9314C0A2E3B0E0E2E35A
:1013A000F0E08081482F8A81282F30E081E090E0B2
:1013B000022E02C0880F991F0A94E2F780958423B9
:1013C0008C930F900F900F900F900F90CF91DF9113
:1013D0000895DF93CF9300D000D00F92CDB7DEB742
:1013E0008A836B8319828B81883008F084C08A815C
:1013F000843008F080C08A81282F30E03D832C8320
:101400004C815D814130510579F18C819D81823023
:10141000910534F42C813D812115310569F06BC0B3
:101420004C815D8142305105B9F18C819D818330C1
:10143000910509F449C05FC0E9E3F0E08081282FFD
:1014400030E08B81882F90E0A90102C05595479527
:101450008A95E2F7CA0181709070882319F081E0C3
:10146000898349C0198247C0E6E3F0E08081282FD4
:1014700030E08B81882F90E0A90102C055954795F7
:101480008A95E2F7CA0181709070882319F081E093
:10149000898331C019822FC0E3E3F0E08081282FD7
:1014A00030E08B81882F90E0A90102C055954795C7
:1014B0008A95E2F7CA0181709070882319F081E063
:1014C000898319C0198217C0E0E3F0E08081282FDA
:1014D00030E08B81882F90E0A90102C05595479597
:1014E0008A95E2F7CA0181709070882319F081E033
:1014F000898301C0198289810F900F900F900F90FE
:101500000F90CF91DF910895DF93CF9300D000D05B
:10151000CDB7DEB789836A838981843090F589816C
:10152000282F30E03C832B838B819C818130910577
:10153000D1F02B813C81223031052CF48B819C81B0
:10154000009761F01EC02B813C812230310581F073
:101550008B819C818330910581F013C0EAE3F0E038
:101560008A8180830EC0E7E3F0E08A81808309C02E
:10157000E4E3F0E08A81808304C0E1E3F0E08A8163
:1015800080830F900F900F900F90CF91DF9108956F
:10159000DF93CF9300D000D0CDB7DEB789836A83C5
:1015A0008981843090F58981282F30E03C832B831A
:1015B0008B819C8181309105D1F02B813C8122303F
:1015C00031052CF48B819C81009761F01EC02B812A
:1015D0003C812230310581F08B819C8183309105E3
:1015E00081F013C0EBE3F0E08A8180830EC0E8E372
:1015F000F0E08A81808309C0E5E3F0E08A8180839E
:1016000004C0E2E3F0E08A8180830F900F900F9096
:101610000F90CF91DF910895DF93CF9300D000D04A
:10162000CDB7DEB78A8319828A81843090F58A81AA
:10163000282F30E03C832B838B819C818130910566
:10164000D1F02B813C81223031052CF48B819C819F
:10165000009761F01EC02B813C812230310581F062
:101660008B819C818330910581F013C0E9E3F0E028
:10167000808189830EC0E6E3F0E08081898309C020
:10168000E3E3F0E08081898304C0E0E3F0E080815F
:10169000898389810F900F900F900F90CF91DF91E8
:1016A0000895DF93CF93CDB7DEB76D970FB6F8945B
:1016B000DEBF0FBECDBF198A188A1F86C2C0198A25
:1016C000CE0142960E94FF10CE0148960E94FF1064
:1016D000188A1DC08889282F30E0CE014296FC016F
:1016E000E20FF31F40818889282F30E0CE01489611
:1016F000FC01E20FF31F8081481731F081E0898BF4
:1017000080E00E94B01006C088898F5F888B88892E
:10171000853000F38989882309F093C081E08F87A1
:1017200081E00E94B010188A88C08889882F90E0D4
:1017300088519C4FAC018889282F30E0CE01429619
:10174000FC01E20FF31F2081CA01622F0E94720781
:1017500080E090E0A0E2B1E48B879C87AD87BE87F4
:101760006B857C858D859E8520E030E04AEF54E4D2
:101770000E941F02DC01CB018F839887A987BA875B
:101780006F81788589859A8520E030E040E85FE3C5
:101790000E94790388232CF481E090E09E838D835E
:1017A0003FC06F81788589859A8520E03FEF4FE7BC
:1017B00057E40E94190318164CF56B857C858D85BE
:1017C0009E8520E030E040E251E40E941F02DC01EF
:1017D000CB01BC01CD010E944900DC01CB019E83FD
:1017E0008D830FC088EC90E09C838B838B819C81E0
:1017F0000197F1F79C838B838D819E8101979E8356
:101800008D838D819E81009769F714C06F817885E3
:1018100089859A850E944900DC01CB019E838D83D6
:101820008D819E819A83898389819A810197F1F7BD
:101830009A83898388898F5F888B8889853008F4AB
:1018400074CF8F85882309F43ACF6D960FB6F8943C
:10185000DEBF0FBECDBFCF91DF910895DF93CF9351
:10186000CDB7DEB780917800882381F48DE396E3CD
:10187000909369008093680088E690E00E940E06CD
:10188000809178008F5F8093780055C080917800B8
:10189000813071F4109269001092680088E690E03F
:1018A0000E940E06809178008F5F8093780043C07D
:1018B00080917800823081F483E794EA9093690004
:1018C0008093680088E690E00E940E068091780080
:1018D0008F5F809378002FC080917800833081F4EF
:1018E0008DE396E3909369008093680088E690E02A
:1018F0000E940E06809178008F5F809378001BC055
:1019000080917800843031F4809178008F5F8093EB
:10191000780011C080917800853069F40E945C06DF
:101920008EEF9FEF9093690080936800809178001C
:101930008F5F80937800CF91DF910895DF93CF93ED
:101940000F92CDB7DEB780917800882339F481E01B
:101950008983898164E60E942D07F5CF8091780004
:10196000813089F380917800833031F41982898144
:1019700060E00E942D07E7CF80917800843039F431
:1019800082E08983898164E60E942D07DCCF809103
:1019900078008530C1F2809178008630A1F61982F6
:1019A000898160E00E942D07109278000F90CF91FE
:1019B000DF910895DF93CF93CDB7DEB7C155D04007
:1019C0000FB6F894DEBF0FBECDBF1BAE1AAEAFE5AB
:1019D000B0E0EFE5F0E0808180688C9381E089AF32
:1019E000FE01EC5BFF4F85E08083FE01EC5BFF4F67
:1019F00082E08183CE018A5B9F4F2F969FAF8EAF8F
:101A00002F978EE690E061969FAF8EAF619797E03B
:101A100062969FAF62976196EEADFFAD61970080D1
:101A200061968EAD9FAD6197019661969FAF8EAF27
:101A300061972F96EEADFFAD2F9700822F968EAD5A
:101A40009FAD2F9701962F969FAF8EAF2F976296DF
:101A50009FAD6297915062969FAF62976296EFAD8D
:101A60006297EE23C1F6CE018C5B9F4F0E94B40FAC
:101A7000CE018A5B9F4F0E943A100E9412070E947B
:101A8000EC060E94510B80E060E00E942D070E944E
:101A9000C7108CAF8CAD8B3209F035C11BAEB4C012
:101AA00081E089AFCE01CD960E94FF101AAE94C09E
:101AB0008AAD882F90E088519C4F9E012D5B3F4F4F
:101AC000B9010E94B30780E090E0A0E2B1E48DABE1
:101AD0009EABAFABB8AF6DA97EA98FA998AD20E042
:101AE00030E04AEF54E40E941F02DC01CB0189ABD5
:101AF0009AABABABBCAB69A97AA98BA99CA920E036
:101B000030E040E85FE30E94790388232CF481E011
:101B100090E098AB8FA73FC069A97AA98BA99CA92F
:101B200020E03FEF4FE757E40E94190318164CF5E9
:101B30006DA97EA98FA998AD20E030E040E251E484
:101B40000E941F02DC01CB01BC01CD010E944900B3
:101B5000DC01CB0198AB8FA70FC088EC90E09EA76B
:101B60008DA78DA59EA50197F1F79EA78DA78FA59F
:101B700098A9019798AB8FA78FA598A9009769F7A7
:101B800014C069A97AA98BA99CA90E944900DC010B
:101B9000CB0198AB8FA78FA598A99CA78BA78BA5E6
:101BA0009CA50197F1F79CA78BA78AAD282F30E061
:101BB000CE01CD96FC01E20FF31F9081FE01ED5B9B
:101BC000FF4F8081981729F080E00E94B01019AE75
:101BD00007C08AAD8F5F8AAF8AAD853008F468CFC1
:101BE00089AD882371F081E00E94B0108EE29CE004
:101BF0000E94740688E690E00E940E060E949E0CE9
:101C000007C08BAD8F5F8BAF8BAD833008F448CFAF
:101C100089AD882309F03BCF0E94FA0680E090E668
:101C2000AAE6B7E48FA398A7A9A7BAA76FA178A53A
:101C300089A59AA520E030E04AEF54E40E941F02F3
:101C4000DC01CB018BA39CA3ADA3BEA36BA17CA1A4
:101C50008DA19EA120E030E040E85FE30E9479037F
:101C600088232CF481E090E09AA389A33FC06BA164
:101C70007CA18DA19EA120E03FEF4FE757E40E9499
:101C8000190318164CF56FA178A589A59AA520E02F
:101C900030E040E251E40E941F02DC01CB01BC01B4
:101CA000CD010E944900DC01CB019AA389A30FC09A
:101CB00088EC90E098A38F8F8F8D98A10197F1F712
:101CC00098A38F8F89A19AA101979AA389A389A12B
:101CD0009AA1009769F714C06BA17CA18DA19EA168
:101CE0000E944900DC01CB019AA389A389A19AA192
:101CF0009E8F8D8F8D8D9E8D0197F1F79E8F8D8F8D
:101D00000E940607C4CE8CAD8D3209F0C0CE1BAE4A
:101D1000ACC081E089AFCE01CD960E94FF101AAE13
:101D200094C08AAD882F90E088519C4F9E012D5B16
:101D30003F4FB9010E94B30780E090E0A0E2B1E418
:101D4000898F9A8FAB8FBC8F698D7A8D8B8D9C8D8F
:101D500020E030E04AEF54E40E941F02DC01CB0196
:101D60008D8B9E8BAF8BB88F6D897E898F89988D77
:101D700020E030E040E85FE30E94790388232CF400
:101D800081E090E09C8B8B8B3FC06D897E898F8931
:101D9000988D20E03FEF4FE757E40E941903181693
:101DA0004CF5698D7A8D8B8D9C8D20E030E040E282
:101DB00051E40E941F02DC01CB01BC01CD010E9455
:101DC0004900DC01CB019C8B8B8B0FC088EC90E031
:101DD0009A8B898B89899A890197F1F79A8B898BDC
:101DE0008B899C8901979C8B8B8B8B899C89009715
:101DF00069F714C06D897E898F89988D0E9449008A
:101E0000DC01CB019C8B8B8B8B899C89988B8F877A
:101E10008F8598890197F1F7988B8F878AAD282F46
:101E200030E0CE01CD96FC01E20FF31F9081FE0160
:101E3000ED5BFF4F8081981729F080E00E94B01081
:101E400019AE07C08AAD8F5F8AAF8AAD853008F4BE
:101E500068CF89AD882331F081E00E94B0100E94E4
:101E6000510B07C08BAD8F5F8BAF8BAD833008F408
:101E700050CF89AD882309F00ACE0E94FA0680E08F
:101E800090E6AAE6B7E48B879C87AD87BE876B8513
:101E90007C858D859E8520E030E04AEF54E40E94E9
:101EA0001F02DC01CB018F839887A987BA876F81D6
:101EB000788589859A8520E030E040E85FE30E94DC
:101EC000790388232CF481E090E09E838D833FC0CA
:101ED0006F81788589859A8520E03FEF4FE757E449
:101EE0000E94190318164CF56B857C858D859E859F
:101EF00020E030E040E251E40E941F02DC01CB010F
:101F0000BC01CD010E944900DC01CB019E838D8381
:101F10000FC088EC90E09C838B838B819C81019720
:101F2000F1F79C838B838D819E8101979E838D83A6
:101F30008D819E81009769F714C06F8178858985AE
:101F40009A850E944900DC01CB019E838D838D819F
:101F50009E819A83898389819A810197F1F79A8377
:101F600089830E94060793CDDF93CF9300D0CDB72E
:101F7000DEB79A838983A0E2B0E0E981FA818181AA
:101F80008C93E1E2F0E01082A2E2B0E0E981FA8114
:101F900080818C93E6E5F0E084E080830F900F90E1
:101FA000CF91DF910895DF93CF93CDB7DEB7E6E50C
:101FB000F0E084EA8083E6E5F0E080818823DCF7C6
:101FC000CF91DF910895DF93CF93CDB7DEB7E6E5EC
:101FD000F0E084E98083CF91DF910895DF93CF9380
:101FE0000F92CDB7DEB78983E3E2F0E08981808389
:101FF000E6E5F0E084E88083E6E5F0E08081882390
:10200000DCF70F90CF91DF910895DF93CF93CDB799
:10201000DEB7E6E5F0E084EC8083E6E5F0E0808181
:102020008823DCF7E3E2F0E08081CF91DF9108952F
:10203000DF93CF93CDB7DEB7E6E5F0E084E88083A9
:10204000E6E5F0E080818823DCF7E3E2F0E08081E0
:10205000CF91DF910895DF93CF930F92CDB7DEB785
:10206000E1E2F0E08081887F898389810F90CF91C0
:10207000DF910895DF93CF9300D000D0CDB7DEB7C6
:102080009C838B831A821982EBE2F0E082E08083EA
:10209000AAE2B0E0EB81FC81808186958695882F4D
:1020A00090E0880F991F880F991F88618C93A0E496
:1020B000B0E0EB81FC818181882F90E08295929540
:1020C000907F9827807F9827282F2668EB81FC81B6
:1020D0008281882F90E0880F991F880F991F880FA1
:1020E000991F282BEB81FC818081882F90E08370E1
:1020F0009070880F991F822B8C93EB81FC818381D8
:102100009481A581B681880F991FAA1FBB1F880FD4
:10211000991FAA1FBB1F880F991FAA1FBB1F9C01D5
:10212000AD0180E092E1AAE7B0E0BC01CD010E94E0
:102130006111DA01C90101979A838983E0E4F0E033
:1021400089819A81892F99278083E9E2F0E089814A
:1021500080830F900F900F900F90CF91DF91089593
:10216000DF93CF930F92CDB7DEB78983EBE2F0E038
:102170008081882F90E0807290700097B9F3ECE234
:10218000F0E0898180830F90CF91DF910895DF93F4
:10219000CF93CDB7DEB7EBE2F0E080818823DCF7A8
:1021A000ECE2F0E08081CF91DF910895DF93CF934F
:1021B00000D00F92CDB7DEB79B838A8319820EC001
:1021C0008981282F30E08A819B81FC01E20FF31F77
:1021D00080810E94B01089818F5F89838981282F37
:1021E00030E08A819B81FC01E20FF31F808188230C
:1021F00039F70F900F900F90CF91DF9108950F93C3
:102200001F93DF93CF9300D00F92CDB7DEB79B83A0
:102210008A8319828981282F30E08A819B818C01F1
:10222000020F131F0E94C710F80180830FC089811D
:102230008F5F89838981282F30E08A819B818C017F
:10224000020F131F0E94C710F80180838981282F75
:1022500030E08A819B81FC01E20FF31F8081833291
:1022600031F78981282F30E08A819B81FC01E20FC0
:10227000F31F10820F900F900F90CF91DF911F915D
:102280000F910895629FD001739FF001829FE00D2E
:10229000F11D649FE00DF11D929FF00D839FF00DE5
:1022A000749FF00D659FF00D9927729FB00DE11D91
:1022B000F91F639FB00DE11DF91FBD01CF0111246E
:1022C0000895A1E21A2EAA1BBB1BFD010DC0AA1F77
:1022D000BB1FEE1FFF1FA217B307E407F50720F08F
:1022E000A21BB30BE40BF50B661F771F881F991F0A
:1022F0001A9469F760957095809590959B01AC0153
:10230000BD01CF0108952F923F924F925F926F923D
:102310007F928F929F92AF92BF92CF92DF92EF9275
:10232000FF920F931F93CF93DF93CDB7DEB7CA1BF6
:10233000DB0B0FB6F894DEBF0FBECDBF09942A8821
:10234000398848885F846E847D848C849B84AA84C9
:10235000B984C884DF80EE80FD800C811B81AA8156
:10236000B981CE0FD11D0FB6F894DEBF0FBECDBF21
:08237000ED010895F894FFCF80
:102378000000000000000000FEFF0000050003024E
:06238800008025000000AA
:00000001FF
